:020000040800F2
:10000000A84900209D0100088F150008A9020008DA
:100010008D1500087B040008BD1A000800000000D0
:10002000000000000000000000000000AF01000818
:100030007D04000800000000EF0100080116000820
:10004000B7010008B7010008B7010008B7010008B0
:10005000B7010008B7010008B7010008B7010008A0
:10006000B7010008B7010008B7010008B701000890
:10007000B7010008B7010008B7010008B701000880
:10008000B7010008B7010008B7010008B701000870
:10009000B7010008B7010008B7010008B701000860
:1000A000B7010008B7010008B7010008B701000850
:1000B000B7010008B7010008B7010008B701000840
:1000C000B7010008B7010008B7010008B701000830
:1000D000B7010008B11A0008B7010008B70100080D
:1000E000B7010008B7010008B7010008B701000810
:1000F000B7010008B7010008B7010008B701000800
:10010000B7010008B7010008B7010008B7010008EF
:10011000B7010008B7010008B70100082D17000853
:10012000B7010008B7010008B7010008B7010008CF
:10013000B7010008B7010008B7010008B7010008BF
:10014000B7010008B7010008B7010008B7010008AF
:10015000B7010008B7010008B7010008B70100089F
:10016000B7010008B7010008B7010008B70100088F
:10017000B7010008B7010008B7010008000000003F
:10018000B7010008B7010008DFF80CD000F05EF9F5
:100190000048004771040008A8490020064880472D
:1001A00006480047FEE7FEE7FEE7FEE7FEE7FEE75C
:1001B000FEE7FEE7FEE7FEE71D17000889010008DD
:1001C000EFF3108072B6704780F310887047444A8E
:1001D0001368012B04D04FF001031360414A1060F3
:1001E000414A116041484FF0805101607047EFF380
:1001F000108272B63A48016851B34FF000010160B5
:100200003848016891B1EFF309811EF0100F08BF63
:1002100021ED108B21E9F00F4FF000041EF0100FBC
:1002200008BF012441F8044D006801602E490968A7
:10023000096808C9B1E8F00F002B18BFB1EC108BAA
:1002400081F309884EF0100E002B18BF2EF0100E0F
:1002500082F310884EF0040E704723490860EFF3D4
:10026000148222F0040282F314881E494FF0000029
:1002700008601B494FF0010008601D481D49D0F877
:10028000002041EA0201016018484FF080510160EE
:1002900019480068006880F3088861B662B6BFF349
:1002A0004F8FBFF36F8F70471EF0040F0CBFEFF33B
:1002B0000880EFF3098020E9F00F40F804ED40F8E2
:1002C00004ED1EF0040F0CBF80F3088880F309884A
:1002D00000B502F0D5FD5DF804EB4EF0040E70475A
:1002E000340000202C0000203000002004ED00E04D
:1002F00020ED00E00000FFFF08ED00E02DE9F05FD9
:100300000546002092469B46884606468146402484
:100310001BE0284641464746224600F086F85346F1
:100320005A46C01A914110D311461846224600F091
:100330006DF82D1A67EB01084F4622460120002177
:1003400000F064F817EB00094E41201EA4F10104EF
:10035000DFDC484631462A464346BDE8F09FD2B22C
:1003600001E000F8012B491EFBD270470022F6E79E
:1003700010B513460A4604461946FFF7F0FF20461B
:1003800010BD421E12F8013F002BFBD111F8013BBA
:1003900002F8013B002BF9D1704710B5044604E088
:1003A0000B7800F8013B03B1491C521EF8D22046DD
:1003B00010BD421C10F8011B0029FBD1801A7047A8
:1003C00010B5002200E0521C835C8C5CA34201D17A
:1003D000002BF8D1D8B2E1B2401A10BD034611F893
:1003E000012B00F8012B002AF9D11846704730B5CF
:1003F00005460020034600E05B1C934205D2EC5CFE
:10040000C85C201A01D1002CF6D130BD202A04DBB3
:10041000203A00FA02F1002070479140C2F1200317
:1004200020FA03F3194390407047202A04DB203A56
:1004300021FA02F00021704721FA02F3D040C2F104
:10044000200291400843194670470000064C074DB2
:1004500006E0E06840F0010394E807009847103494
:10046000AC42F6D3FFF794FE8C450008AC4500087B
:1004700010B503F0B7FD002010BDFEE7704772B65F
:10048000FEE72DE9F0410446876D00F069F9064664
:1004900094F835000025022806D08020606584F895
:1004A00034500120BDE8F0812068016821F0160178
:1004B00001602068416921F080014161206C08B928
:1004C000A06C20B12068016821F00801016020685B
:1004D000016821F0010101600CE000F041F9801B8E
:1004E000052807D920206065032084F8350084F8AA
:1004F0003450D7E720680068C007EED194F85C104C
:100500003F208840B860012084F8350084F83450DA
:100510000020C7E790F83510022903D080214165FB
:1005200001207047052180F835100068016821F02E
:10053000010101600020704770B5044600F010F919
:100540000546601C02D004480078044400F008F915
:10055000401BA042FAD370BD080000202DE9F84FDF
:10056000DFF8BCA10022012503264FF00F090AF194
:10057000040BAAF1040E00BF0B6805FA02F4234035
:10058000A34270D10F7907F00307012F01D0022F8A
:1005900016D187684FEA420806FA08FC27EA0C07DA
:1005A000D1F80CC00CFA08FC4CEA070CC0F808C0E3
:1005B0004768A7430C79C4F3001494403C4344605B
:1005C0000C79E443A4070AD0C4684FEA420C06FA47
:1005D0000CF7BC438F6807FA0CF72743C7600C7908
:1005E00004F00304022C12D1D40800EB840CDCF8D4
:1005F00020405707FF0E09FA07F824EA0804D1F84B
:10060000108008FA07F848EA0408CCF8208004684B
:100610004FEA420C06FA0CF7BC430F7907F00307C8
:1006200007FA0CF7274307604C6814F4403F70D07A
:100630003C4C276847F480472760246822F0030772
:1006400004F480440094384C07EB040CDCF80848B0
:1006500097074FEA177809FA08F7BC43334FB842B7
:1006600002D1002724E054E0314FB84201D10127E4
:100670001EE0304FB84201D1022719E02E4FB84298
:1006800001D1032714E02D4FB84201D104270FE018
:100690002B4FB84201D105270AE02A4FB84201D1B9
:1006A000062705E0284FB84201D1072700E00827B8
:1006B00007FA08F72743CCF80878DAF800405746DD
:1006C000D1F804C09C435FEACC2C00D51C433C60AD
:1006D000DBF800405F46D1F804C09C435FEA8C2CF5
:1006E00000D51C433C60DEF800407746D1F804C0DA
:1006F0009C435FEA8C3C00D51C433C60084F083F9C
:100700003C68D1F804C09C435FEACC3C00D51C4354
:100710003C60521C102AFFF42FAFBDE8F88F000098
:10072000083C0140443802400030014000000240D3
:100730000004024000080240000C02400010024089
:100740000014024000180240001C024000690840EA
:1007500000D0012070470AB1816170470904FBE7AE
:100760000148806870470000080000200248816846
:100770000278114481607047080000200B4810B5D2
:10078000016841F400710160016841F48061016019
:10079000016841F480710160032000F09BF80F2094
:1007A00000F006F800F050F8002010BD003C0240B8
:1007B00030B505461F4887B00024016841F020018C
:1007C0000160006806A900F02000009001A800F078
:1007D0002DF90498A8B100F04FF940001649174AC6
:1007E000B0FBF1F11648491E026040F2E732C0E961
:1007F0000324C0E90114846100F05AFB040003D013
:1008000015E000F039F9E9E70D4800F07FFB04003E
:100810000DD1372000F030F8102D07D200222946E4
:10082000372000F037F80748056000E0012407B0E2
:10083000204630BD4038024040420F0000140040C6
:10084000980500200C0000200A4808B5016841F412
:1008500080410160006800F4804000900548001F5E
:10086000016841F080510160006800F08050009004
:1008700008BD000044380240002809DB00F01F02D8
:10088000012191404009800000F1E020C0F80011F2
:1008900070470000F0B40E4B1B680C46C3F30223F4
:1008A000C3F10705042D00D90425191D072901D21C
:1008B000002300E0DB1E012606FA05F1491E214057
:1008C00099409E40761E16403143F0BC01F0F7B8C7
:1008D0000CED00E0064900F0070208684FF6FF0340
:1008E000184040EA0220034A1043086070470000A5
:1008F0000CED00E00000FA052DE9F0470E4605007A
:1009000065D0DFF81481D8F80000F7B200F00700D6
:10091000B04207D288F80070D8F8000000F0070055
:10092000B04254D128683D4C810712D5400703D509
:10093000206840F4E05020602878000703D5206844
:1009400040F4604020602068A96820F0F00008436F
:1009500020602878C0072DD0304968680839012800
:1009600012D0022813D0032811D009688907002962
:100970002DDA216821F0030101432160FFF7F0FE29
:10098000814641F2883A0EE009688903EFE7096879
:100990008901ECE7FFF7E4FEA0EB0901514502D91C
:1009A0000320BDE8F0872068696800F00C00B0EB18
:1009B000810FEFD1D8F80010404601F00701B14295
:1009C00007D90770006800F00700B04201D001208D
:1009D000E7E72878400705D52068E96820F4E0506B
:1009E000084320602878000706D52068296920F48C
:1009F000604040EAC100206000F05EF82168084ACB
:100A0000C1F30311515CC8400649086006480068FC
:100A1000FFF7CEFE0020C4E7003C02400838024049
:100A200056420008140000200C0000200F22026033
:100A30000C4A136803F003034360136803F0F003E8
:100A40008360136803F4E053C36012684FF4E0530B
:100A500003EAD20202610448006800F0070008605F
:100A60007047000008380240003C0240014800681E
:100A70007047000014000020044805490068096818
:100A8000044AC1F38221515CC84070471400002021
:100A900008380240664200080448054900680968B1
:100AA000044AC1F34231515CC84070471400002031
:100AB0000838024066420008154810B5006810F07A
:100AC0000C02144813D04110042A0FD0082A0ED16A
:100AD0000F4C241F2268236802F03F025B0207D5F7
:100AE0002068C0F38810A0FB010106E0084610BD95
:100AF0002168C1F38811A1FB00010023FFF7FEFB71
:100B00002168C1F30141491C4900B0FBF1F010BD5F
:100B1000083802400024F4002DE9F84F04006ED09C
:100B20002078DFF84C93C007A9F104054AD009F1F9
:100B300004000168C1F38101012908D00068C0F3F5
:100B4000810002280AD1D9F80000400206D52868A1
:100B5000800337D560680028E1D033E06068B0F5E5
:100B6000803F10D0B0F5A02F286810D020F480303E
:100B70002860286820F4802028606068A8B1FFF70A
:100B8000EFFD06460DE0286840F48030F4E740F4BD
:100B900080202860F7E700BFFFF7E2FD801B642894
:100BA00073D828688003F7D50CE0FFF7D9FD064617
:100BB00005E000BFFFF7D4FD801B6428F0D828684B
:100BC0008003F7D42078DFF8AC8280074FF0000A6A
:100BD0003ED5A748001D016811F00C0F08D0006831
:100BE000C0F3810002280BD1D9F80000400207D4DD
:100BF0002868800716D5E068012800D112E033E1AB
:100C0000E068B8B10120C8F80000FFF7A9FD06466A
:100C100005E000BFFFF7A4FD801B0228C0D82868AC
:100C20008007F7D52868216920F0F80040EAC10064
:100C300028600DE0C8F800A0FFF792FD064604E02A
:100C4000FFF78EFD801B02281FD828688007F7D485
:100C50002078000722D5864F87486169703771B1C7
:100C600001210160FFF77CFD064604E0FFF778FDF7
:100C7000801B022809D838688007F7D50EE0C0F835
:100C800000A0FFF76DFD064605E082E0FFF768FD76
:100C9000801B02287DD838688007F7D42078400769
:100CA00068D5DFF8CCB100270BF13C0BDBF8000076
:100CB000C0000BD4DBF8001041F08051CBF80010DD
:100CC000DBF80000012700F0805000906B4E306888
:100CD000C00510D4306840F480703060FFF740FDEC
:100CE000009005E0FFF73CFD0099401A022850D81B
:100CF0003068C005F6D55E4EA0686C3601280FD06E
:100D00000528306810D020F001003060306820F0F5
:100D100004003060A068B8B1FFF722FD00900FE03A
:100D2000306840F00100F4E740F004003060F7E77D
:100D3000FFF716FD0099411A41F28830814266D8CA
:100D400030688007F4D50EE0FFF70AFD009007E059
:100D5000FFF706FD0099411A41F28830814256D8CA
:100D600030688007F4D42FB1DBF8001021F08051F7
:100D7000CBF80010A069C8B33D49091D0968C1F34B
:100D8000810102294AD00228504607D0C8F86000E5
:100D900000E03CE0FFF7E4FC04463BE04746C8F8CF
:100DA0006000FFF7DDFC064605E000BFFFF7D8FC5A
:100DB000801B02282BD828688001F7D4D4E90701CA
:100DC0000843A16A2E4A490802EB0141626A41EADE
:100DD0008211084394F82C1040EA0161C9F8001010
:100DE00001203866FFF7BCFC044606E03EE000BF89
:100DF000FFF7B6FC001B022809D828688001F7D548
:100E000034E000BFFFF7ACFC001B022802D903202E
:100E1000BDE8F88F28688001F4D427E00128F7D0D6
:100E2000D9F80000E26900F4800191421CD1226AE5
:100E300000F03F01914217D147F6C071626A01404C
:100E4000B1EB821F10D1A26A4FF0FF3300F44031A2
:100E500003EB5202B1EB024F06D194F82C1000F0D4
:100E60007060B0EB016F01D00120D1E70020CFE727
:100E70000438024000004742800E474200700040A4
:100E80000000FFFF10B5401EB0F1807F01D30120AC
:100E900010BD4FF0E02460610F21601700F00FFEDD
:100EA0000020A06107202061002010BD704770471E
:100EB00010B5040003D094F83D0010B107E0012004
:100EC00010BD002084F83C00204600F01EF80220EF
:100ED00084F83D00211D206800F02EFC012084F8DC
:100EE000460084F83E0084F83F0084F8400084F80F
:100EF000410084F8420084F8430084F8440084F8F8
:100F0000450084F83D00002010BD704790F83D106A
:100F1000012901D001207047022180F83D100168AD
:100F2000CA6842F00102CA6000681149884214D0C0
:100F3000B0F1804F11D00F4988420ED00E4988423F
:100F40000BD00E49884208D00D49884205D00D4982
:100F5000884202D00C49884204D1816801F007011F
:100F6000062903D0016841F00101016000207047AB
:100F7000000001400004004000080040000C004058
:100F800000040140004001400018004070472DE976
:100F9000F04104460068C66805694FF00007A907DC
:100FA00013D5B10711D5F91E016101202077206802
:100FB00080698007204602D0FFF7E8FF04E000F0D8
:100FC0007EF8204600F07CF82777680716D5700772
:100FD00014D521686FF00400086102202077206892
:100FE000806910F4407F204602D0FFF7CFFF04E075
:100FF00000F065F8204600F063F82777280715D53C
:10100000300713D521686FF00800086104202077AD
:101010002068C0698007204602D0FFF7B7FF04E0D0
:1010200000F04DF8204600F04BF82777E80616D57B
:10103000F00614D521686FF01000086108202077B1
:101040002068C06910F4407F204602D0FFF79EFF61
:1010500004E000F034F8204600F032F82777E80783
:1010600008D0F00706D021686FF001000861204623
:1010700000F028F8280608D5300606D521686FF05C
:10108000800008612046FFF711FF680608D570064A
:1010900006D521686FF040000861204600F01CF87A
:1010A000A8060AD5B00608D521686FF020000861AF
:1010B0002046BDE8F041FFF7FABEBDE8F081704779
:1010C0007047000000680349884201D1FFF74EBB1A
:1010D00070470000001400407047704770470000E0
:1010E000F8B5016804460868CA684B6910F00F0F2C
:1010F0004FF0000559D003F0010602F49077374312
:1011000065D0C10705D0D10503D5616C41F001015F
:101110006164410705D5D90703D0616C41F0020134
:101120006164810705D5D90703D0616C41F00401E2
:101130006164010707D502F02001314303D0616CDF
:1011400041F008016164616C00293AD0800604D541
:10115000900602D5204600F08AFB20684069616C49
:10116000C0F38010090700D460B3204600F058FB9C
:1011700020684069400621D52068143050E8001FDF
:1011800021F0400140E80012002AF5D1E06BA8B13F
:101190006E490165E06BFFF7BDF9002811D0E06BE7
:1011A000016D01B0BDE8F040084783060FD59306F6
:1011B0000DD52046BDE8F84000F059BB2046FFF7AA
:1011C0008DFFF8BD2046FFF789FF6564F8BD266BEB
:1011D0002023012E7DD1C6067BD5D60679D5086899
:1011E0004868009048694FF00206400641D5E16B1F
:1011F000086840680004000CE8D0A28D8242E5D95E
:10120000E085C869B0F5807F2DD020680C3050E8AB
:10121000001F21F4807140E80012002AF5D12068F7
:10122000143050E8001F21F0010140E80012002AAC
:10123000F5D12068143050E8001F21F0400140E84B
:101240000012002AF5D184F84230256320680C3062
:1012500050E8001F21F0100140E80012002AF5D1EB
:10126000E06BFFF70EF96663A08DE18D401A81B245
:101270002AE0A08DE18D401A81B2E08D0028A5D032
:101280000029A3D022680C3252E8000F20F490709D
:1012900042E80007002FF5D12068143050E8002FF5
:1012A00022F0010240E80027002FF5D184F84230F7
:1012B000256320680C3050E8002F22F0100240E82F
:1012C0000023002BF5D166632046FFF706FFF8BD2B
:1012D000FFE705062BD5150629D594F841002128EE
:1012E000F5D1A068B0F5805F01D12069B0B1206A66
:1012F000411C2162216800784860E08C401E000497
:10130000000CE084E3D12068C16821F08001C16055
:101310002068C16841F04001C160D8E7206A0088B8
:10132000C0F308004860206A801C2062E5E74006A0
:10133000CDD55006CBD5CA68204622F04002CA60FF
:1013400084F8413000F0C5F8C1E70000111800082A
:1013500070B5040004D094F84100002510B106E0F7
:10136000012070BD84F84050204600F023F824206E
:1013700084F841002068C16821F40051C160204612
:1013800000F0D6FA2068016921F4904101612068DB
:10139000416921F02A0141612068C16841F400518E
:1013A000C1606564202084F8410084F842006563D0
:1013B000002070BD10B586B0044614216846FEF7C3
:1013C000D5FF18492068884229D1174800210268B2
:1013D00042F010020260006800F010000590124810
:1013E0001438026842F001020260006800F0010057
:1013F00005904FF4C06000900220CDE90101032068
:1014000003900720049069460848FFF7A7F80022D8
:1014100011462520FFF73EFA2520FFF72DFA06B0EA
:1014200010BD00000010014044380240000002409E
:1014300070472DE9F843044690F841009846164657
:101440000D46202802D00220BDE8F88385B17EB188
:1014500000206064212084F84100FFF781F9A68410
:101460008146E684A0682027B0F5805F02D003E0C3
:101470000120E9E7206910B12E4600250EE0002684
:101480000CE08021204600F0D9FAA8B9C6B116F8C0
:10149000010B21684860E08C401EE084E08C4B46E4
:1014A0004FF00002CDF800800028EAD14FF0400153
:1014B000204600F0C3FA40B184F841700320C3E72E
:1014C00035F8020BC0F30800E3E784F84170002010
:1014D000BAE7704770B586B014216846FEF746FF3C
:1014E0001A480025016841F080010160016801F09F
:1014F00080010591016841F004010160016801F07B
:1015000004010591016841F0010101600068104E7D
:1015100000F001004FF4026405900022214630469D
:10152000FFF719F9009401240220CDE9014003904E
:1015300069463046FFF712F8A002CDE9000569467A
:1015400002943046FFF70AF806B070BD303802400A
:10155000000802400C4810B50A4901604FF4E1311F
:101560004160002181600C22C160C0E904128161E8
:10157000C161FFF7EDFE002803D0BDE81040FEF783
:101580007EBF10BD0010014050050020FEE7FEE7C1
:1015900010B50B4C0122D1022046FFF7DCF80122E6
:1015A00020212046FFF7D7F84FF4FA70FEF7C4FF6A
:1015B00020460022BDE810402021FFF7CCB80000F3
:1015C0000008024070B50D4D4FF480642146284656
:1015D000FFF7BCF8002810D13220FEF7ADFF2146FE
:1015E0002846FFF7B3F80028F9D02846BDE8704038
:1015F00000224FF40061FFF7AEB870BD0008024052
:1016000010B501F065FD02F089FABDE8104001F067
:101610006DBD000030B593B030216846FEF7A6FEE0
:1016200014210CA8FEF7A2FE1C480025016841F019
:1016300080510160006800F08050119018480168E6
:1016400041F4804101600068022400F48040119060
:1016500001200090000401908001CDE9064008AA15
:101660000420482182E813000B906846FFF754FAE3
:1016700008B172B6FEE70CA90F2081E831004FF4E3
:101680008050CDE90F0502210CA8FFF735F900289D
:1016900001D072B6FEE713B030BD00004038024002
:1016A0000070004070B5194C2068194A10F00C0108
:1016B000184804D05510042903D0082903D002602B
:1016C0001BE0056019E01149091F0B68C3F3805640
:1016D0000B6803F03F0316B1B5FBF3F201E0B2FB78
:1016E000F3F20B680968C3F388135A43C1F301414D
:1016F000491C4900B2FBF1F101602168064AC1F3BF
:101700000311515C0268CA40026070BD0838024093
:101710000024F4001400002056420008024801682A
:1017200041F470010160704788ED00E00148FFF767
:101730002EBC000098050020F0B50268294C2A4D07
:101740002A4E2B4F2B4B4FF0804CA04209D06045C6
:1017500007D0A84205D0B04203D0B84201D0984289
:1017600004D122F0700E4A6842EA0E02A0421BD059
:10177000604519D0A84217D0B04215D0B84213D056
:10178000984211D01C4DA8420ED01C4DA8420BD03F
:101790001B4DA84208D01B4DA84205D01A4DA842A7
:1017A00002D01A4DA84203D122F44075CA682A43D8
:1017B0004D6922F080022A4302608A68C2620A6888
:1017C0008262A04201D0984201D1096901630121DE
:1017D00041610169C90703D0016921F0010101617B
:1017E000F0BD00000000014000040040000800407F
:1017F000000C004000040140004001400044014052
:101800000048014000180040001C0040002000403B
:1018100010B5806B0021C185C184FFF75FFC10BD4E
:1018200001680C3151E8002F22F4907241E8002346
:10183000002BF5D10168143151E8002F22F001028C
:1018400041E80023002BF5D1016B012909D1016882
:101850000C3151E8002F22F0100241E80023002B48
:10186000F5D1202180F8421000210163704708B5AE
:1018700090F84210222901D0022008BD82684FF45E
:1018800080539A4201D1016921B1816A9A421BD0E9
:101890004AB10AE00268816A5268C2F308020A800B
:1018A000816A891C08E0026972B10268526802F01C
:1018B0007F020A70816A491C8162C18D491E090438
:1018C000090CC18503D01BE002685268F1E701688A
:1018D000CA6822F02002CA600168CA6822F48072D5
:1018E000CA6001684A6922F001024A61202180F839
:1018F000421000214163026B012A03D0FFF798FDDB
:10190000002008BD016301680C3151E8002F22F06E
:10191000100241E80023002BF5D101680A68D206C5
:1019200002D50A6849680091818DFFF7D6FBE7E789
:1019300070B5044600680169E26821F44051114322
:1019400001612169A068E2690843616911430843A4
:101950002168CA6849F20C639A430243CA6020684E
:101960004169A26921F44071114341613149206804
:10197000884202D03049884202D1FFF78DF801E059
:10198000FFF77AF8E2690023192164253226B2F5BF
:10199000004F626828D0A0FB0101930F9200FEF770
:1019A000ADFC0146B0FBF5F06FF01802504301EBBF
:1019B000800006EB0010B0FBF5F000F0F002B1FB88
:1019C000F5F002EB0012B1FBF5F06FF0180358438D
:1019D00001EB800006EB0010B0FBF5F000F00F000B
:1019E00021681044886070BDA0FB010192185B4122
:1019F000FEF784FC0146B0FBF5F00201B1FBF5F007
:101A00006FF01803584301EB800006EBC000B0FBF9
:101A1000F5F000F0F80002EB4002B1FBF5F058439E
:101A200001EB800006EBC000B0FBF5F000F0070012
:101A3000D6E7000000100140001401402DE9F843F2
:101A4000984617460D460446089E24E0701C22D096
:101A5000FEF786FEA0EB0800B0421AD8CEB120688F
:101A6000C168490717D5802D15D0402D13D00168C6
:101A7000C94309070FD4016800254068009020463B
:101A8000FFF7CEFE0820606484F840500120BDE8D6
:101A9000F8830320FBE72068006835EA000004D0E3
:101AA0000020B842D2D00020F1E70120F9E7000081
:101AB0000148FFF715BB000050050020FEE70907AD
:101AC000090E002804DB00F1E02080F800147047C4
:101AD00000F00F0000F1E02080F8141D70470000B6
:101AE000002807D00E4910F0FF0F04D051FA80F003
:101AF0000078401C704710F47F4F04D0C0F30720DB
:101B0000085C0930704710F47F0F04D0C0F3074021
:101B1000085C1130704701EB106000781930704795
:101B20006E42000802E008C8121F08C1002AFAD15C
:101B300070477047002001E001C1121F002AFBD14D
:101B4000704700002DE9F04788B091468A46064666
:101B5000002500E06D1C705D202803D0092801D00D
:101B60005545F7D34FF0FF3835B31448144F046888
:101B700009E02A4631462068FEF739FC10B9206892
:101B8000405D20B10C3438688442F2D314E0A4687C
:101B900094B120220021684601F04EFB6A4651466E
:101BA000304600F055FF38B16946A047C9F800003B
:101BB000002008B0BDE8F0874046FAE71800002092
:101BC0001C00002010B5044605488068FFF788FF18
:101BD0000449401E51F830102060A1F1140010BDDE
:101BE000C00000205C08002070B50C480468FEF7B7
:101BF000E7FA0546204601F065FC04F1440002F0D6
:101C00001DF8042084F83400204601F083FE2846A5
:101C1000FEF7DAFABDE8704001F0BEBBC400002058
:101C20002DE9FC411F460446DDE90831DDE90A657E
:101C3000143040600060C4E90827C4E90A310A464C
:101C40002321184601F0F8FAD4E90A014218D4E930
:101C500008010E4B121F01F01DFAE06184F8356097
:101C60000020C4E90E052564206384F83400206751
:101C70006067009023460190054A194604F144002C
:101C800001F0F0FF0020BDE8FC810000E91B000826
:101C9000951C000870B50446FEF792FA05466FF0F1
:101CA0000100206304F1140001F064FA204601F001
:101CB000CFFB2846FEF788FABDE8704001F06CBB08
:101CC00010B5029C24F001044472C0E907120021FF
:101CD000C0E9093114304060006010BD143001F0DB
:101CE00052BA000010B51BA001F00EFA1C4C21786E
:101CF0001CA001F009FA2078C00702D01FA001F053
:101D000003FA2078800702D51FA001F0FDF92078A2
:101D1000400702D51FA001F0F7F92078000702D58F
:101D200020A001F0F1F92078C00602D520A001F032
:101D3000EBF92078000607D509480F300168BDE8A7
:101D400010401DA001F0E0B9BDE810401EA001F058
:101D5000DBB90000627573206661756C743A0A0025
:101D600029ED00E05343425F434653525F424653DE
:101D7000523A3078253032582000000049425553FD
:101D800045525220000000005052454349534552ED
:101D900052200000494D505245434953455252206C
:101DA00000000000554E53544B4552522000000095
:101DB00053544B45525220005343422D3E4246411C
:101DC000523A253038580A000A00000010B502A027
:101DD00001F09AF9002010BD1B5B324A1B5B4800E2
:101DE00010B50C46022811D115A16068FEF7E8FA7B
:101DF00000281BD014A16068FEF7E2FA002818D072
:101E000013A16068FEF7DCFA002815D011A001F0DC
:101E10007BF916A001F078F917A001F075F91DA063
:101E200001F072F922A001F06FF907E000F030FB39
:101E300004E000F00BFC01E000F088FA002010BD87
:101E4000746872656164000074696D6572000000F9
:101E500073656D0055736167653A206C6973742012
:101E60005B6F7074696F6E735D0A00005B6F7074F6
:101E7000696F6E735D3A0A002020202074687265D5
:101E80006164202D206C69737420746872656164CC
:101E9000730A00002020202074696D6572202D20B7
:101EA0006C6973742074696D6572730A00000000B8
:101EB0002020202073656D202D206C6973742073A1
:101EC000656D6170686F7265730A00000D4810B52A
:101ED000C16891F82110890703D40B4900200870CC
:101EE0000EE0816821B180220748FEF756FA03E030
:101EF00006A10548FEF772FA06A10348FEF741FA6B
:101F0000014810BD18000020E00500206D73682016
:101F1000000000003E0000000349C96811F8212FAD
:101F200060F341020A70704718000020014AC2E9BC
:101F300000017047180000207CB516491648FFF7CD
:101F4000F5FF7821012000F0D5FE144CE060D0B1FF
:101F50000A211520CDE900014FF4806300221049C9
:101F600010A001F09AFC054600231A460FA1E06874
:101F700001F0CCFA0120FFF7CFFF15B1284601F0A0
:101F800077FD00207CBD0BA001F0BEF84FF0FF30C4
:101F90007CBD00008C4500082C450008180000207E
:101FA000CD1F0008747368656C6C000073687278EC
:101FB000000000006E6F206D656D6F727920666F96
:101FC00072207368656C6C0A00000000944DE8682C
:101FD00010F8211F41F001010170FFF777FF01F0B8
:101FE00093F8002600F00CFF0400FBD41B2C07D054
:101FF000E86890F82010012907D002290ED017E0D8
:10200000E968012081F82000ECE75B2C02D080F821
:1020100020600DE0022180F82010E3E780F82060C6
:10202000412CDFD0422CDDD0442C38D0432C43D07F
:10203000002CD7D0FF2CD5D0092C4ED07F2C71D0BE
:10204000082C6FD00D2C6CD00A2C6AD0B0F874100C
:10205000502901D3A0F87460B0F87630B0F874104D
:102060008B427DD2CA1A00F1220123301944184450
:1020700001F0C8F8E868B0F8761022300C54E8682F
:1020800090F82110C90706D0B0F87610223001442C
:1020900064A001F039F8E868B0F876409DE0B0F847
:1020A000760000289ED060A001F02EF8E96831F893
:1020B000760F401E088095E7B0F87610B0F87420CF
:1020C00091428FD22230095C58A001F01DF8E868D7
:1020D00030F8761F491C018084E7002403E052A0F9
:1020E00001F012F8641CE868B0F87600A042F6DC53
:1020F000EC684FA0223401F007F8204600F0FCFB0A
:10210000FFF7E4FE014622464AA000F0FDFFE86822
:102110002230FEF74EF9E96821F8740F488061E734
:1021200000E03DE0B0F87620002AC4D0B0F874108A
:10213000521E491E89B293B2A0F87410A0F87630EE
:10214000994224D9CA1A00F12301223019441844B3
:1021500001F058F8E868B0F8741022300E5400E02E
:1021600041E0E868B0F876102230014433A000F076
:10217000CBFFE868B0F8764003E02BA000F0C4FF86
:10218000641CE868B0F87400A04294DBF5E72DA069
:1021900000F0BAFFE868B0F8741022300E5421E75E
:1021A00090F82100C00702D021A000F0ADFFE86840
:1021B000B0F87410223000F0E9FBFFF787FE00F062
:1021C000A3FFE86851220021223001F035F8E868C9
:1021D00022E015A000F098FF641CE868B0F87400D5
:1021E000A042F6DC0AE022300C54E86890F82100A6
:1021F000C00703D021460DA000F086FFE868B0F8C4
:102200007410491C89B2A0F87410B0F87620521CE2
:10221000A0F876205029C2D320F8746F4680E1E6FA
:10222000180000202573000008000000256300004E
:102230000A000000257325730000000008257320A4
:10224000200800000820080010B5124C2068800704
:1022500002D511A000F058FF2068400011D50D48AC
:10226000C01E007808B1FFF73DFD0A48001F007846
:1022700008B100F0D5FA0748801E008808B101F0C7
:102280007DFF2068002804DABDE8104008A000F0B7
:102290003BBF10BD2CED00E06661696C6564207683
:1022A0006563746F722066657463680A00000000DD
:1022B0006465627567206576656E740A00000000CB
:1022C0002DE9F04104461E4617460D46084601F02A
:1022D00021F8001D2060257200206760C4E90360BA
:1022E000BDE8F0812DE9F0410D4600212961E96842
:1022F00091B1297A81B12E6888B10446FDF760FF5B
:102300000146A4F10C002A7A007A20F08000904265
:1023100009D00846FDF758FF0020BDE8F08134469B
:10232000FDF74EFF0146686800272468B44201D1DA
:10233000002404E010C0EA687F1CBA42F5D10846C8
:10234000FDF742FF20462F61E7E700002DE9F0414D
:1023500094B0002733A408230BAA022105A8FFF795
:10236000AFFF082080460146224631A000F0CCFE97
:10237000404600F0D5FB35A000F0C6FE05A9384662
:10238000FFF7B0FF0746002643E00BA850F82640B1
:102390000C3CFDF715FF217A9DF81C2021F08001EF
:1023A000914202D0FDF710FF32E0FDF70DFF04F17E
:1023B00014006169054681421FD000F0C9FEA18B5F
:1023C000CDE9001023460822414626A000F09CFEDD
:1023D0002C680CE0A4F11402082126A000F094FE61
:1023E0002068A84202D025A000F08EFE2468AC42EE
:1023F000F0D115A000F088FE0AE000F0A9FEA18B44
:10240000CDE900102346082241461DA000F07CFEC5
:10241000761C0998B042B8DC002FAFD114B0002070
:10242000BDE8F08173656D6170686F7265000000D2
:10243000252D2A2E73207620202073757370656EEB
:1024400064207468726561640A000000202D2D2DDF
:10245000202D2D2D2D2D2D2D2D2D2D2D2D2D2D0ADC
:1024600000000000252D2A2E2A73202530336420F9
:1024700025643A00252E2A73000000002F0000007A
:10248000252D2A2E2A7320253033642025640A0046
:102490002DE9F041B4B000263DA408232CAA012167
:1024A00008A8FFF70DFF08208046014622463A485B
:1024B00000F02AFE404600F033FB38A000F024FE76
:1024C00008A93046FFF70EFF0646002557E02CA866
:1024D00050F825400C3CFDF773FE0746207A9DF826
:1024E000281020F08000884203D03846FDF76CFEAB
:1024F00044E0782221460EA800F05EFE3846FDF743
:1025000063FE94F83500009023460822414633A02C
:1025100000F0FAFD94F8340000F00700012807D01D
:10252000022807D040B1042808D0032808D00AE0C8
:102530002DA006E02FA004E031A002E033A000E0CF
:1025400035A000F0E1FDA76A00E07F1C3878232861
:10255000FBD0206B01F034F90146D4E90A023B1AA2
:10256000D31A64277B43276CCDE90071B3FBF2F3E8
:10257000E169401A81182BA000F0C6FD6D1C0C9873
:10258000A842A4DC002E9BD134B00020BDE8F0812D
:10259000746872656164000090430008202D2D2D41
:1025A00020202D2D2D2D2D2D2D202D2D2D2D2D2D82
:1025B0002D2D2D2D202D2D2D2D2D2D2D2D2D2D2065
:1025C000202D2D2D2D2D2D20202D2D2D2D2D2D2D62
:1025D0002D2D2D202D2D2D0A00000000252D2A2E19
:1025E0002A732025336420002072656164792020DD
:1025F000000000002073757370656E6400000000B9
:1026000020696E69742020200000000020636C6F38
:1026100073652020000000002072756E6E696E6781
:1026200000000000203078253038782030782530C0
:1026300038782020202025303264252520202030A5
:1026400078253038782025730A000000F0B593B063
:1026500000262AA408230BAA0A2104A8FFF730FEAB
:1026600008272246394627A000F04EFD384600F0E4
:1026700057FA31A000F048FD04A93046FFF732FEBA
:10268000064600252CE00BA850F825400C3CFDF731
:1026900097FD217A9DF8182021F08001914202D007
:1026A000FDF792FD1BE0FDF78FFDD4E90901CDE9AF
:1026B00000012346082239462BA000F025FD607A50
:1026C000C00701D02EA000E031A000F01DFD607A0F
:1026D000800701D532A000E034A000F015FD6D1C8C
:1026E0000898A842CFDC002EC6D101F011FA0146AD
:1026F00031A000F009FD13B00020F0BD74696D65D4
:1027000072000000252D2A2E732020706572696FDB
:1027100064696320202074696D656F7574202020C2
:102720002061637469766174656420202020206DC7
:102730006F64650A00000000202D2D2D2D2D2D2DFC
:102740002D2D2D202D2D2D2D2D2D2D2D2D2D202DD3
:102750002D2D2D2D2D2D2D2D2D2D202D2D2D2D2DB6
:102760002D2D2D2D0A000000252D2A2E2A73203014
:1027700078253038782030782530387820000000EF
:102780006163746976617465642020200000000034
:10279000646561637469766174656420000000009B
:1027A000706572696F6469630A0000006F6E65206E
:1027B00073686F740A00000063757272656E74202E
:1027C0007469636B3A3078253038780A000000006D
:1027D00009A000F099FCFDF7D1FFFEF71BFFFEF703
:1027E00079FEFEF7B7FEFEF7D3FE01F061FC0A208A
:1027F00001F0F0F8FBE7000068656C6C6F2C7274F8
:10280000746872656164313233212121210A00002C
:1028100010B500F08BFABDE81040FFF7D9BF0000FB
:1028200010B518A000F070FC1B4C21781BA000F024
:102830006BFC2078C00702D01EA000F065FC207859
:10284000800702D51EA000F05FFC2078000702D5AB
:102850001EA000F059FC2078C00602D51EA000F092
:1028600053FC2078000607D50B480C300168BDE802
:1028700010401CA000F048BCBDE810401D4800F00E
:1028800043BC00006D656D206D616E6167652066FB
:1028900061756C743A0A000028ED00E05343425F12
:1028A000434653525F4D4653523A307825303258A2
:1028B000200000004941434356494F4C200000008E
:1028C0004441434356494F4C200000004D554E5360
:1028D000544B4552522000004D53544B4552522008
:1028E000000000005343422D3E4D4D41523A2530E9
:1028F00038580A00EC4100082DE9F04781460025D0
:1029000000782C4618B11E481E4F06682AE0BDE824
:10291000F0470021084600F06BB84846D6F8008022
:10292000FDF747FD024641464846FDF760FDC0B948
:1029300025B944464046FDF73CFD05464146204644
:1029400001E0401C491C02781AB10B780BB19A4285
:10295000F7D0001BA84200DA054641460AA000F065
:10296000D3FB0C3638688642D7D3002C06D02A46D3
:1029700021464846BDE8F04700F038BFBDE8F08783
:10298000180000201C00002025730A0038B50446FA
:1029900001E0491E641C59B120782028F9D009288B
:1029A000F7D06A462046FFF7CDF818B1204604E07C
:1029B000002038BD009838BD401C0178202901D086
:1029C0000029F9D100210170214603A000F09CFBF1
:1029D0004FF0FF3038BD000025733A20636F6D6DF6
:1029E000616E64206E6F7420666F756E642E0A00CF
:1029F00070B50AA000F088FB0F48104D046805E090
:102A0000D4E900120EA000F07FFB0C342868844249
:102A1000F6D30EA000F078FB002070BD52542D5468
:102A20006872656164207368656C6C20636F6D6D9E
:102A3000616E64733A0A0000180000201C00002038
:102A4000252D313673202D2025730A000A00000041
:102A500070B5002315461C461A464BE000F8012BC2
:102A60005B1C0678202E01D0092E01D18B42F5D3B4
:102A7000082C11D321A000F047FB002606E000BF80
:102A800055F8261025A000F03FFB761CA642F7D390
:102A900021A000F039FB2FE08B422DD2F6B2222E7E
:102AA00003D045F82400641C1BE0401C45F82400BA
:102AB0005B1C641C08E05C2E04D14678222E01D1F8
:102AC000401C5B1C401C5B1C0678222E01D08B42F4
:102AD000F1D38B4210D200F8012B5B1C0AE0401CA2
:102AE0005B1C0678202E03D0092E01D08B42F6D332
:102AF0008B4201D28B42B4D3204670BD546F6F20FD
:102B00006D616E7920617267732021205765206F97
:102B10006E6C79205573653A0A0000002573200019
:102B200010B5044602E003A000F0EEFA641EFAD2EB
:102B300010BD00002D00000030B5826A4B681A44B9
:102B40000023914211D01478E4070ED1C46A944254
:102B50000BD0046B944200D10163136054684C6045
:102B6000846A52680D1B22449560826A8C682244F4
:102B70008A420ED01478E4070BD1046B8C4200D14A
:102B800002630B604B685360806A4968121A0844FC
:102B9000826030BD2DE9F04F85B09946DDE90EA584
:102BA000109CAB46630602D5DFF814C103E0DFF8E2
:102BB00010C1ACF1110CE30601D524F00104E307C8
:102BC00001D0302300E0202300260493A3070BD577
:102BD000002A02DA2D26524206E0630701D52B2691
:102BE00002E0230700D520260023EE4622B930223A
:102BF0008DF8002001230CE0B9F10A0F14D002F087
:102C00000F0812091CF808800EF803805B1C002ACC
:102C1000F2D1AB4200DD1D46AAEB050214F0110F04
:102C20004FF0200708D015E00A27B2FBF7F807FBA2
:102C30001828B2FBF7F2E5E73EB1002A05DD521E87
:102C400003E0884200D20770401CB2F1000CA2F1F0
:102C50000102F6DC26B1884200D20670401C521EEA
:102C6000E40605D508E0884201D2049C0470401CAB
:102C7000141EA2F10102F6DC30242E466D1E9E4287
:102C80000ADD884200D20470401CF6E7884201D277
:102C9000E55C0570401C00E074461D1EA3F10103B5
:102CA00007DDBBF1000FF1D103E0884200D20770CD
:102CB000401C131EA2F10102F7DC05B0BDE8F08F45
:102CC0007F43000800F0D4B81CB514210A20CDE9D8
:102CD00000014FF480630022034904A000F0DDFDF1
:102CE000BDE81C4000F0C4BE112800086D61696E8B
:102CF0000000000070B54843044600F04DFA05009E
:102D000003D02246002100F097FA284670BD00004B
:102D100070B5044C044D02E020688047241DAC428D
:102D2000FAD370BD184500082045000870B5044C62
:102D3000044D02E020688047241DAC42FAD370BDE8
:102D4000204500082845000810B5FDF739FA044A67
:102D50005188491C5180BDE81040FDF735BA00008C
:102D6000C000002010B5FDF72BFA0B4C6188491EFE
:102D700009B2618000290ADC00216180FDF724FA94
:102D80006068002807D0BDE8104000F005BBBDE832
:102D90001040FDF719BA10BDC000002010B50400A6
:102DA00008D0FFF7D1FF204600F07FFCBDE81040BF
:102DB000FFF7D8BF10BD0000004870475C09002035
:102DC000004870475C45002010B5FDF7D7FCFEF7C2
:102DD00021FCFEF767FCFDF749FE4FF47A71B0FB6A
:102DE000F1F0FEF74FF8FFF793FFFFF7E9FF044616
:102DF000FFF7E2FF2146BDE8104000F00BBD0000E8
:102E0000084810B500684FF0FF340168C9438906CF
:102E100002D44068C4B202E00A2000F0DBFDE0B258
:102E200010BD00005C450020F8B506460D200F4996
:102E30008DF80000002481F84040304600F0CEFCC0
:102E400005460FE0305D0A2805D101231A46694680
:102E50000648FEF7EEFA012331191A460348FEF739
:102E6000E8FA641CAC42EDD3F8BD00005C450020DC
:102E700002490148086070470400FA050CED00E0C3
:102E800070B530490546283009682C1D11B18847B6
:102E9000002855D02CA0216C00F036F92EA0616AD4
:102EA00000F032F930A0A16A00F02EF932A0E16AF8
:102EB00000F02AF934A0216B00F026F936A06168F1
:102EC00000F022F938A0A16800F01EF93AA0E168EC
:102ED00000F01AF93CA0216900F016F93EA06169E2
:102EE00000F012F940A0A16900F00EF942A0E169DA
:102EF00000F00AF944A0216A00F006F946A0616BCF
:102F000000F002F948A0A16B00F0FEF84AA0E16BC6
:102F100000F0FAF82878400706D500F081FD014658
:102F200049A000F0F1F802E04FA000F0EDF8287899
:102F3000C00602D453A000F0E7F8FFF785F9FEE7DA
:102F400070BD0000280000207073723A2030782590
:102F50003038780A000000007230303A203078258E
:102F60003038780A000000007230313A203078257D
:102F70003038780A000000007230323A203078256C
:102F80003038780A000000007230333A203078255B
:102F90003038780A000000007230343A203078254A
:102FA0003038780A000000007230353A2030782539
:102FB0003038780A000000007230363A2030782528
:102FC0003038780A000000007230373A2030782517
:102FD0003038780A000000007230383A2030782506
:102FE0003038780A000000007230393A20307825F5
:102FF0003038780A000000007231303A20307825ED
:103000003038780A000000007231313A20307825DB
:103010003038780A000000007231323A20307825CA
:103020003038780A00000000206C723A2030782591
:103030003038780A000000002070633A203078258C
:103040003038780A0000000068617264206661759B
:103050006C74206F6E207468726561643A20257309
:103060000D0A0D0A00000000686172642066617537
:103070006C74206F6E2068616E646C65720D0A0D51
:103080000A00000046505520616374697665210D81
:103090000A00000070B50446121D22F0070000224D
:1030A0000A4D443840F82250521C112AFAD341628A
:1030B00000218162C16200F13402016382E81A00DA
:1030C0004FF080730364016070BD0000EFBEADDEA1
:1030D00010B5FDF775F8044A1178491C1170BDE868
:1030E0001040FDF771B800004400002010B5FDF756
:1030F00067F8044A1178491E1170BDE81040FDF7C9
:1031000063B80000440000200FB47F2110B503AB6A
:103110000748029A00F014FE04467F2800D97F2455
:103120000348FFF781FE204610BC5DF814FB000049
:10313000DC0700200268516002680A600160486094
:1031400070470268516002680A6001604860704719
:103150000246002100E0491C00689042FBD108466D
:103160007047D0E900124A60D0E900121160406057
:1031700000607047D0E900124A60D0E90012116087
:10318000406000607047D0E900124A60D0E9001248
:10319000116040600060704710B50446FFF7D4FD31
:1031A00004482146406800F025FA0446FFF7DAFD9E
:1031B000204610BD4800002010B50346102A1DD33C
:1031C00041EA0304A40719D110C9103A10C310C969
:1031D000102A10C351F8084B43F8084B51F8044C1F
:1031E00043F8044CF0D202E010C9121F10C3042AA5
:1031F000FAD203E011F8014B03F8014B521EF9D249
:1032000010BD000010B50346994211D28C189C42A3
:103210000ED9811804E000BF14F8013D01F8013D0A
:10322000521EF9D210BD00BF11F8014B03F8014B3B
:10323000521EF9D210BD000010B50346CCB2042ACC
:103240001AD3810718D1194644EA042343EA0343F9
:1032500006E008C1103A08C141F8083B41F8043CB7
:10326000102AF6D201E008C1121F042AFBD20B4635
:1032700002E000BF03F8014B521EFBD210BD2DE946
:10328000F0410F46064600F045F80546C068FFF7D6
:1032900083FF040019D00021EA68FFF7CDFF2672F2
:1032A0000020607208223946204600F09FFAFCF7A1
:1032B00087FF064604F10C01281DFFF73BFF30464F
:1032C000FCF782FF2046BDE8F0810020FBE770B5E7
:1032D000044600202072FCF773FF054604F10C0041
:1032E000FFF73FFF2846FCF76FFF2046BDE8704020
:1032F000FFF754BD70B5044600202072FCF760FF54
:10330000054604F10C00FFF72CFF2846BDE870408D
:10331000FCF75ABF074A002102EB01131B788342D6
:1033200002D102EB01107047491C0429F4DB002094
:1033300070470000800000202DE9F0410446164649
:103340000D460846FFF7E6FF0746FFF7FDFC381D70
:10335000796800E009688142FCD1FFF703FD45F080
:103360008000207208223146204600F03FFAFCF728
:1033700027FF054604F10C01381DFFF7DBFE284648
:10338000BDE8F041FCF720BF007A000601D501201E
:103390007047002070470000F8B5FCF711FF2A4D78
:1033A00007466888D0BBA868C0B300266846FEF709
:1033B00009FC0446686890F8341001F00702032AFB
:1033C0000ED190F83520009B9A4202D303D10A0710
:1033D00001D4044600E0012621F0080180F83410F1
:1033E000844222D0009A29462A7005464C600EB1CC
:1033F00000F02EF8204600F065F894F8340020F034
:103400000700C01C84F834001048007804F11C0147
:10341000002805F11C0002D0FCF7D9FE0EE0FCF7F5
:10342000D6FE3846FCF7D0FEF8BD00F04BF86868D1
:1034300010F8341F21F00701C91C01703846BDE89F
:10344000F840FCF7C1BE0000C0000020440000208E
:1034500070B50546FCF7B4FE184902464868854237
:1034600006D115F8340F20F00700C01C287020E0AA
:1034700095F8340005F1140420F00700401C85F88D
:10348000340003070E4895F8353000EBC30006D52D
:1034900043681C60436863604460206005E0036823
:1034A0005C600368236004606060A86B8B681843ED
:1034B0008860BDE870401046FCF786BEC000002062
:1034C0005C08002010B50446FCF77AFE04F11401F4
:1034D000D1E900235360D1E900231A60A161616141
:1034E00094F83520074951F8323001EBC2018B4284
:1034F00004D10549A36B8A689A438A60BDE81040ED
:10350000FCF762BE5C080020C00000202DE9F041FD
:1035100016460A461F4605460221FFF70DFF05F134
:103520001404AC616C61AE836F720020BDE8F08161
:103530001CB50AA0FFF7E8FD0BA0FFF7E5FD13A1FE
:1035400015A0CDE9000101231A46042115A0FFF7BB
:10355000DBFD1DA0FFF7D8FD1CBD00000A205C208C
:103560007C202F0A000000002D205254202D202006
:10357000202020546872656164204F706572617408
:10358000696E672053797374656D0A0030393A307B
:10359000383A323500000000536570203231203255
:1035A00030323400202F207C205C20202020202559
:1035B000642E25642E2564206275696C6420257351
:1035C0002025730A000000002032303036202D20E4
:1035D0003230323220436F707972696768742062CA
:1035E000792052542D546872656164207465616D50
:1035F0000A000000F0B5E9B3C91C21F003020C2A4F
:1036000000D20C22416B91424DD3846A036B1B1B89
:103610008D1A46E0E1180E78F60740D14E68F61A8A
:103620000C3E96423BD34D6802F11807EE1A0C3E51
:10363000BE4222D39D180C352C4420F00106266092
:103640004E68C4E901634D606368446B0C34A34267
:1036500002D0846A23449D60036A0C321A440262D9
:10366000436A934200D2426240F001020A60026B58
:103670008A4200E017E009D00EE00A1B036AAA1A8A
:103680001A44ECE7836A52681A4402631378DB0732
:1036900002D0C36A9A42F5D101F10C00F0BD1B1DA6
:1036A000E3589D42B6D20020F0BD002812D0A0F110
:1036B0000C01086820F001000860026B8A4200D902
:1036C0000163836A4A68CB1AD21A036A9A1A0262A1
:1036D000FFF732BA704700002DE9F0410646134665
:1036E000C81C20F0030404F13802D01C20F00305AC
:1036F0000B4423F00300182830D9A0F11807974293
:103700002CD3471B382200212046183FFFF794FD99
:1037100032460C212046FFF70FFE04F1140112A0DF
:1037200081E8A1006763A5622C60606B0C30686063
:103730000020A860A06A6968084444F00101E062C2
:103740000160606BE16A0C304860606BE16A0C30CC
:103750008860A06A20632046BDE8F0811A4604A074
:10376000FFF7D2FC0020F7E7736D616C6C0000007E
:103770006D656D20696E69742C206572726F7220A0
:10378000626567696E206164647265737320307866
:1037900025782C20616E6420656E642061646472FB
:1037A00065737320307825780A0000000FB410B5D7
:1037B00004AA039900F006FC10BC5DF814FB00009D
:1037C000002800DA404204490B2801DDC86A70472E
:1037D00051F820007047000050000020014600E032
:1037E000491C0A78002AFBD1081A704710B5002A34
:1037F00007D0034611F8014B03F8014B2CB1521EC0
:10380000F8D110BD03F8011B00E00021521EF9D1D0
:1038100010BD0000C21C22F0030221F003018A1A2D
:1038200010B5014602A0FFF757FF0349486010BDDD
:1038300068656170000000004800002010B5074B6B
:103840000022074C5A80104604EBC001401C49601E
:1038500009602028F8DB9A6010BD0000C00000203D
:103860005C08002038B56846FEF7ACF90446064807
:1038700044602046FFF726FE032084F8340004F15C
:103880001C00FCF7EAFC38BDC00000200148406085
:1038900000607047D000002070472DE9FF4789463F
:1038A000DDE90C76824601461D4690460120FFF771
:1038B000E6FC041E0DD02846FFF76EFC60B10396AF
:1038C0008DE8A10043464A4651462046FEF7A8F936
:1038D000204604B0BDE8F0872046FFF7F8FC002042
:1038E000F7E7000070B50A480025046884420DD04F
:1038F000A4F11405FCF764FCD4E900124A60D4E991
:103900000012116064602460FCF75EFC284670BD04
:103910003C000020044914300A6850600A680260C4
:1039200008604160704700003C000020FFF7DAFFAC
:103930000400FBD0266FFFF727FD0546012802D1C2
:103940002046FFF7D7FC0EB12046B047002DEDD141
:10395000A06AFFF723FA2046FFF7B9FCE6E700006C
:1039600010B586B000220BA104A8FFF71FFF0B487B
:1039700020231F22D9008DE80F00A0F178042046F3
:103980000023074A04A900F00DF8204600F070F863
:1039900006B010BD7469646C65256400DC06002007
:1039A0002D3900082DE9FF5F92460EAA0C4692E8D9
:1039B000E0010A46994683460121FFF7BDFC8DE8E8
:1039C000E0014B46524621465846FEF729F904B01D
:1039D000BDE8F09F10B500F082F8BDE8104000F09F
:1039E00025B870B5044690F8340000F007000228AE
:1039F00002D04FF0FF3070BDFCF7E2FB054604F14A
:103A00001400FFF7B7FB04F1440000F081F92046F1
:103A1000FFF71EFD2846FCF7D7FB002070BD000015
:103A20000148006870470000C4000020F1B50F484D
:103A30000468FCF7C5FB064600252046256300F018
:103A40002BF804F144006A460021074600F0D0F844
:103A5000384600F01BF93046FCF7B6FBFFF79CFC3C
:103A6000206B801C00D12563206BF8BDC4000020B2
:103A700010B590F83520012191408163022180F832
:103A80003410FFF7AEFF0348006808B1FFF784FC6D
:103A9000002010BDC400002070B5044690F834002A
:103AA00000F00700012804D0032802D04FF0FF30B7
:103AB00070BDFCF785FB05462046FFF703FD94F833
:103AC000340020F00700801C84F8340004F1440026
:103AD00000F01EF92846FCF777FB002070BD002897
:103AE00002DA4FF0FF3070474FF47A7190FBF1F239
:103AF00090FBF1F301FB130000EB40034A43C3EBDF
:103B0000C0104B1E03EBC00090FBF1F01044704757
:103B100001480068704700003800002010B5FCF72D
:103B20004FFB04460E480168491C0160FFF778FF0F
:103B3000016C491E016406D02046FCF745FBBDE838
:103B4000104000F00FB8C16B016410F8341F41F051
:103B5000080101702046FCF737FBFFF71DFCEEE77C
:103B6000380000202DE9FC41CDF804D0CDF800D07C
:103B7000FFF7CEFF0646FCF723FB07461B4D2DE063
:103B800060696FF00041301A143C884229D2204607
:103B9000FEF7A4F8607A810702D420F00100607279
:103BA00004F1140188466846FFF7CBFAD4E9071000
:103BB0008847FFF7ADFF06460098694688420DD05A
:103BC0004046FFF7E0FA607A810707D5C10705D0C4
:103BD00020F001006072204600F058F82C68AC42DA
:103BE000CED13846FCF7F0FABDE8FC81D0000020C9
:103BF00070B515460E460446FCF7E2FA062E17D2BB
:103C0000DFE806F00503080C111A616A0FE0296865
:103C100061620DE0617A21F0020102E0617A41F017
:103C20000201617204E0617AC90700D001212960B4
:103C3000FCF7CAFA002070BDA16AF8E770B5044627
:103C4000FCF7BEFA05462046FEF748F8607A20F0F9
:103C5000010060722846FCF7B7FA2046FFF74AFBDE
:103C6000002070BD2DE9F8439046DDE908450A467D
:103C70001F4606460A21FFF75FFB23463A464146A8
:103C800030460095FEF71CF8BDE8F8832DE9F843AF
:103C90000446FCF795FA80462046FEF71FF8607A46
:103CA00020F001006072FFF733FF616A174A431882
:103CB000A3620020009202EBC002694656686FF0D2
:103CC00000475DF820200AE01268A2EBC0056D698C
:103CD0009D4202D0ED1ABD4203D341F82020B242EA
:103CE000F2D10A48001F0168491C016004F1140167
:103CF0000098FFF726FA607A40F0010060724046B3
:103D0000FCF762FA0020BDE8F8830000D000002034
:103D100070B50446407AC0070ED0FCF751FA05464C
:103D20002046FDF7DBFF607A20F001006072284634
:103D3000FCF74AFA002070BD4FF0FF3070BD000064
:103D40002DE9FF4F8946044600EB090783B0804602
:103D50004FF0FF3A4FF0200BA74202D25746C8F16E
:103D6000FF390BE1252803D0BC4200D2207080E04F
:103D700000260599491C059108782D2811D02B287B
:103D800012D0202813D0232814D0302815D00A7838
:103D90005546303A0A2A13D205A800F038F90546EC
:103DA0001AE046F01006E4E746F00406E1E746F0C4
:103DB0000806DEE746F02006DBE746F00106D8E716
:103DC0002A2809D10698491C059120C80690002D83
:103DD00002DA6D4246F010060598D44601782E2985
:103DE00018D1401C05900178A1F130020A2A04D2B2
:103DF00005A800F00CF9844607E02A2908D1401CE8
:103E00000590069850F804CB0690BCF1000F01DA3B
:103E10004FF0000C059A00201178682901D06C2918
:103E200002D1521C0846059211780A236F2974D0DA
:103E30000CDC63291FD004DC25296FD058290DD153
:103E400084E0642901D0692908D183E0702966D013
:103E500073292CD075297FD0782979D0BC4201D222
:103E6000252020700598641C0178E9B3BC4200D27B
:103E70002170641C7FE0F00608D458466D1E002DAA
:103E800004DDBC4200D22070641CF7E70698BC42F7
:103E900010F8041B069000D22170584602E0BC4284
:103EA00000D22070641C6D1E002DF8DC63E00698C3
:103EB00002C8069001B941A1002000E0401CA842C0
:103EC00002D00A5C002AF9D1BCF1000F02DD604586
:103ED00000DD6046F2060BD45A462B466D1E834227
:103EE00006DDBC4202D200E054E02270641CF4E71C
:103EF000002206E0BC4201D20B782370491C521C00
:103F0000641C8242F6DB5A4629466D1E814232DD30
:103F1000BC4200D22270641CF6E715E010E0681C79
:103F200002D1082546F00106CDE9005C069802960C
:103F3000102304C806903946204619E00CE007E03B
:103F4000BC4296D2252011E7082305E046F0400642
:103F5000102301E046F002066C2801D068281CD02E
:103F6000069804C80690CDE9005C394620460296C2
:103F7000FEF710FE04460598401C05900598007851
:103F800000287FF4EFAEB9F1000F11D0BC420DD282
:103F900020700DE0401E0590EDE7069830F8041BF8
:103FA00006908AB2B007DED512B2DCE707F8010C42
:103FB00007B0A4EB0800BDE8F08F0000284E554C78
:103FC0004C290000134610B50A464FF0FF31FFF7A9
:103FD000B7FE10BD002070470020704700207047DA
:103FE0000020704710B5FCF7EBF8FEF7EDFEFFF789
:103FF0009FFAFFF74BFCFFF721FCFEF765FEFFF78A
:104000004BFCFFF7ADFCFFF72DFC002010BD10B5F9
:10401000014600206FF02F0307E0541C0C6012785B
:1040200000EB800003EB400010440A681478303C39
:104030000A2CF2D310BD000000244FF4FA7521467B
:10404000641C03A0FFF760F82846FFF7C3FCF6E7FF
:104050007468726561643120636F756E743A2025EF
:10406000640A000010B50024214605A0FFF74CF8B3
:10407000641C0A2CF8D3BDE8104006A0FFF744B832
:104080007468726561643220636F756E743A2025BE
:10409000640A00007468726561643220657869742E
:1040A0000A000000FDF78EFA1420FFF793FCF9E7F1
:1040B0002DE9FF4105251926CDE900654FF400776C
:1040C0003B460022144915A0FFF7E7FB154C206082
:1040D00008B1FFF7CDFC4FF48061134A1820CDE9F9
:1040E0000021CDE902050023104A11A11248FFF773
:1040F00059FC1148FFF7BCFCCDE900653B460022A6
:104100000E490FA0FFF7C9FB606008B1FFF7B0FCD4
:1041100004B00020BDE8F081394000087468726581
:104120006164310000000020D800002065400008D4
:104130007468726561643200D8040020A5400008EC
:1041400074687265616433000B4810B509490160F9
:104150004FF4E1314160002181600C22C160C0E96F
:1041600004128161C161FDF7F3F8002800D0FEE779
:1041700010BD0000001001405C45002010B518A0E3
:10418000FEF7C2FF1A4C21881AA0FEF7BDFF208857
:10419000C00702D01DA0FEF7B7FF2088800702D518
:1041A0001DA0FEF7B1FF2088400702D51DA0FEF735
:1041B000ABFF2088000702D51CA0FEF7A5FF2088D2
:1041C000C00502D51BA0FEF79FFF2088800502D501
:1041D0001BA0FEF799FFBDE8104004A0FEF794BFB6
:1041E0007573616765206661756C743A0A0000003A
:1041F0002AED00E05343425F434653525F55465316
:10420000523A30782530325820000000554E44454F
:1042100046494E5354522000494E5653544154453A
:1042200020000000494E5650432000004E4F43509E
:1042300020000000554E414C49474E4544200000A7
:1042400044495642595A45524F20000010B5FFF7D5
:104250006FF9002010BD0000000000000000010206
:10426000030406070809000000000102030400001F
:10427000010002000100030001000200010004002F
:10428000010002000100030001000200010005001E
:10429000010002000100030001000200010004000F
:1042A00001000200010003000100020001000600FD
:1042B00001000200010003000100020001000400EF
:1042C00001000200010003000100020001000500DE
:1042D00001000200010003000100020001000400CF
:1042E00001000200010003000100020001000700BC
:1042F00001000200010003000100020001000400AF
:10430000010002000100030001000200010005009D
:10431000010002000100030001000200010004008E
:10432000010002000100030001000200010006007C
:10433000010002000100030001000200010004006E
:10434000010002000100030001000200010005005D
:10435000010002000100030001000200010004004E
:1043600001000200010003000100020001003031E1
:10437000323334353637383961626364656600300C
:1043800031323334353637383941424344454600BB
:10439000252D2A2E73207072692020737461747524
:1043A0007320202020202073702020202020737470
:1043B00061636B2073697A65206D61782075736520
:1043C00064206C656674207469636B20206572726A
:1043D0006F720A004F4B000045494E56414C000099
:1043E00045525346554C4C00454E4F4D454D0000EF
:1043F00045494F004552524F52000000454E4F5321
:104400005953000045494E54525054004554494DAB
:104410004F55540045554E4B4E4F5700454255534E
:10442000590000004552534550545900636C656172
:104430007200636C65617220746865207465726DCA
:10444000696E616C2073637265656E007665727368
:10445000696F6E0073686F772052542D54687265CF
:1044600061642076657273696F6E20696E666F7223
:104470006D6174696F6E006C6973745F74687265E6
:104480006164006C69737420746872656164006CA7
:104490006973745F73656D006C6973742073656D07
:1044A0006170686F726520696E2073797374656DD1
:1044B000006C6973745F74696D6572006C69737404
:1044C0002074696D657220696E2073797374656DEF
:1044D000006C697374006C697374206F626A656341
:1044E00074730068656C700052542D546872656175
:1044F00064207368656C6C2068656C702E00726552
:10450000626F6F74005265626F6F742053797374B9
:10451000656D0000E13F0008D93F000849410008EF
:10452000D53F0008391F0008DD3F00082C44000873
:1045300032440008CD1D00084C44000854440008D3
:104540004D42000877440008834400089124000885
:104550008F440008984400084D230008B144000827
:10456000BC4400084D260008D1440008D644000889
:10457000E11D0008E3440008E8440008F1290008B0
:10458000FE44000805450008C52C0008AC4500089D
:1045900000000020D8000000241B0008844600080A
:1045A000D8000020D0480000341B000800000000A4
:1045B00000000000010000001000000000000000EA
:1045C0000024F400000000000000000000000000D3
:1045D00000000000000000000000000000000000DB
:1045E00000000000000000003C0000203C00002013
:1045F000000000000000000000000000D44300089C
:10460000F44300080C440008E04300082444000878
:10461000E8430008FC4300081C440008F04300087D
:1046200004440008D84300081444000801000000B6
:1046300084000020840000207800000002000000B8
:104640009400002094000020200000000A000000D8
:10465000A4000020A40000202C0000000C0000009A
:10466000B4000020B400002028000000000000007A
:10467000000000000000000000000000000000003A
:044680000000000036
:040000050800018965
:00000001FF
